:100000000C94B1000C94CE000C94CE000C94CE0055
:100010000C94CE000C94CE000C94CE000C94CE0028
:100020000C94CE000C94CE000C94CE000C94CE0018
:100030000C94CE000C94CE000C94CE000C94CE0008
:100040000C94CE000C94CE000C94CE000C94CE00F8
:100050000C94CE000C94CE000C94CE000C94CE00E8
:100060000C94CE000C94CE0000407A10F35A00A0FD
:10007000724E18090010A5D4E80000E87648170071
:1000800000E40B54020000CA9A3B000000E1F505B1
:10009000000080969800000040420F000000A086FB
:1000A00001000000102700000000E803000000002D
:1000B0006400000000000A000000000001000000D1
:1000C00000002C76D888DC674F0823DFC1DFAE59EB
:1000D000E1B1B796E5E3E453C63AE651997696E87E
:1000E000E6C28426EB898C9B62ED407C6FFCEFBC02
:1000F0009C9F40F2BAA56FA5F490055A2AF75C932D
:100100006B6CF9676DC11BFCE0E40D47FEF520E662
:10011000B500D0ED902E0300943577050080841E45
:10012000080000204E0A000000C80C333333330FA0
:10013000986E12831141EF8D2114893BE65516CF3D
:10014000FEE6DB18D1844B381BF77C1D901DA4BB49
:10015000E424203284725E228100C9F124ECA1E5FE
:100160003D2711241FBECFEFD8E0DEBFCDBF11E089
:10017000A0E0B1E0E4EAFCE002C005900D92AA33F1
:10018000B107D9F721E0AAE3B1E001C01D92A5347F
:10019000B207E1F70E941F010C9450060C94000076
:1001A00090917C00987F90937C0090917C00892BAB
:1001B00080937C0080917A00806480937A008091A3
:1001C0007A0086FDFCCF80917800909179000895A7
:1001D000853608F084E6809300012091010130917A
:1001E00002012F5F3F4FA82FB0E00E94D40424E605
:1001F00030E040E050E00E94B20480910101909113
:100200000201B0E0A0E082179307A407B50730F41D
:1002100020910101309102012F5F3F4F30938900FF
:10022000209388000895FC019191992339F08091E1
:10023000C00085FFFCCF9093C600F6CF0895CF9302
:10024000DF93CDB7DEB764970FB6F894DEBF0FBE6D
:10025000CDBF219A80910101909102019093870076
:100260008093860082E88093800089E180938100FA
:10027000809100010E94E8008091C1008861809314
:10028000C10086E08093C20087E68093C40010928C
:10029000C50080E480937C0087E880937A0083E047
:1002A00091E00E9413018091C00087FF17C08091E8
:1002B000C00087FFFCCF8091C60090ED980F9A3068
:1002C00008F078C0E0914401E53040F491E09E0FE1
:1002D00090934401F0E0E65CFE4F808380E00E9452
:1002E000D00080E00E94D0007C0181E00E94D0001C
:1002F00081E00E94D000BC0190E080E00E945505A2
:1003000020E030E040E850E40E94E30520E030E0E7
:1003100040EA50E40E94E30520E030EC4FE754E46B
:100320000E94E30420E030E040EA5FE30E94E3053E
:100330008E010F5F1F4F22E044E00E9400028BE21B
:1003400091E00E941301C8010E9413018FE291E025
:100350000E941301B70190E080E00E94550520E063
:1003600030E040EA50E40E94E30520E030EC4FE743
:1003700054E40E94E3042AE037ED43EA5FE30E947D
:10038000E30522E044E00E94000285E391E00E9440
:100390001301C8010E94130188E291E00E94130139
:1003A0002FEF89E698E1215080409040E1F700C0AE
:1003B000000079CF8D3019F08A3009F08FCFE091AD
:1003C0004401EE2309F48ACFF0E0E65CFE4F108290
:1003D0008AE391E00E941E028536910574F40E9422
:1003E000E8008AE191E00E9413018AE391E00E9413
:1003F000130187E291E00E941301109244016ECF35
:10040000EF920F931F93CF93DF93E80134E047FD02
:1004100034E1042E000C550B57FF03C05195419554
:100420005109E32E022F242FAE010E944402CE0177
:10043000DF91CF911F910F91EF900895FC018827D4
:100440009927E89421912032E9F3293010F02E30D9
:10045000C8F32B3241F02D3239F4689404C00E9465
:100460003C02820F911D219120532A30C0F31EF4CB
:10047000909581959F4F08957AE0979F902D879F43
:10048000802D910D11240895A9E0B0E0EAE4F2E096
:100490000C9481046A01F22EB02E102FFBE3AF2ED4
:1004A000A01608F41BE31F5F012F27E0AE014F5F8A
:1004B0005F4F0E94A303BC018981982F99709130EE
:1004C00009F43FC09BE2E1FC04C09E2D9170E0FC6A
:1004D0003AC05E2D5071E82FE87083FF46C084E07B
:1004E000911101C083E0EF2DE81B8F1508F0E0E0CB
:1004F000D6018E2F20E2552351F1992329F0D60100
:100500009C93C60101966C0196012D5F3F4FE2FE60
:1005100024C08EE4D6018C9391E411969C9311979C
:1005200012968C93D9018E2F90E281111BC0E20F9D
:10053000F32FF11D10828EEF9FEF2996ECE00C94C3
:100540009D049DE2C6CF90E2C4CF2D9381508111CE
:10055000FCCFCE0ED11CE0E0D0CF8EE6D6018C933E
:1005600091E6DBCF9D938150E0CF482F447082FF0E
:100570003DC084E0911101C083E08F1510F4EF2D90
:10058000E81BD6018E2F20E2552309F1992329F08B
:10059000D6019C93C60101966C0196012D5F3F4FD9
:1005A000E2FE1BC089E4D6018C938EE411968C93F5
:1005B000119786E412968C93D9018E2F90E28823AE
:1005C00009F4B5CF9D938150FACF2D9381508111BD
:1005D000FCCFCE0ED11CE0E0D9CF89E6D6018C93BA
:1005E0008EE611968C93119786E6E4CF9B0177FFF8
:1005F00002C030E020E0A1E0B0E0911102C0B0E024
:10060000A0E0F9013196AE0FBF1F8B2C912CBB20BF
:1006100009F461C05401EFEFAE1ABE0AAA0DBB1D6A
:10062000FA161B0619F014F04F2D4A1B511188C001
:10063000E3FC59C07601A42FB0E2A1114FC0C40E53
:10064000D11C992309F45BC040E0D6011196F60154
:1006500090836D01552309F448C0012F060F9A813C
:10066000582F507184FF03C0913309F401501016C4
:100670000CF047C0093008F008E0EEE2FE2E5B0106
:10068000A01AB10885019194819491082F3F3207F7
:1006900029F4D601FC92F60131966F0162177307B7
:1006A00094F1021713077CF5DB01A21BB30BAA24FC
:1006B000A394B12CAC0EBD1EAA0DBB1D11968C913E
:1006C00021503109D601119628153905F4F0F601AB
:1006D00080836D01DBCFB12CA12CA0CFF701B193AA
:1006E0007F01A150AACF9111B0CFD601942F50E332
:1006F00002C05D9391509111FCCFC40ED11C40E01B
:10070000ACCF01E0BACF80E3DBCF6217730731F4DF
:10071000963388F4953311F4552369F0F6018083FC
:10072000FD01842F90E2811108C0A40FB11D1C921D
:1007300090E080E002CF81E3F1CF91938150F3CF3D
:10074000911183CF8ACF283008F027E03327DA01D0
:10075000990F311D87FD916000966105710539F48F
:1007600032602E5F3D9330E32A95E1F708959F3F75
:1007700030F080387105610509F03C5F3C5F3D93C6
:10078000913008F08068911DDF93CF931F930F93F2
:10079000FF92EF92192F987F9695E92F969596954F
:1007A000E90FFF27EE53FF4F99273327EE24FF244D
:1007B000A701E70105900894079428F4360FE71E77
:1007C000F81E491F511D660F771F881F991F069439
:1007D000A1F70590079428F4E70EF81E491F561F4D
:1007E000C11D770F881F991F661F0694A1F70590FA
:1007F000079428F4F80E491F561FC71FD11D880FF4
:10080000991F661F771F0694A1F70590079420F49F
:10081000490F561FC71FD81F990F661F771F881FC4
:100820000694A9F784911095177041F0D695C79555
:1008300057954795F794E7941A95C1F7E8E6F0E0E5
:1008400068941590159135916591959105907FE289
:100850007395E118F10A430B560BC90BD009C0F789
:10086000E10CF11E431F561FC91FD01D7EF47033CB
:1008700011F48A95E6CFE894015030F0080F0AF49D
:100880000027021708F4202F2395022F7A3328F02F
:1008900079E37D932A95E9F710C07D932A9589F62F
:1008A000069497956795379517951794E118F10A6F
:1008B000430B560BC90BD00998F023957E91739585
:1008C0007A3308F070E37C932013B8F77E9170615F
:1008D0007D9330F0839571E37D9370E32A95E1F782
:1008E0001124EF90FF900F911F91CF91DF919927E5
:1008F00087FD909508952F923F924F925F926F924D
:100900007F928F929F92AF92BF92CF92DF92EF929F
:10091000FF920F931F93CF93DF93CDB7DEB7CA1B20
:10092000DB0B0FB6F894DEBF0FBECDBF09942A884B
:10093000398848885F846E847D848C849B84AA84F3
:10094000B984C884DF80EE80FD800C811B81AA8180
:10095000B981CE0FD11D0FB6F894DEBF0FBECDBF4B
:10096000ED010895A1E21A2EAA1BBB1BFD010DC0CB
:10097000AA1FBB1FEE1FFF1FA217B307E407F5074F
:1009800020F0A21BB30BE40BF50B661F771F881F2B
:10099000991F1A9469F760957095809590959B01C1
:1009A000AC01BD01CF010895A29FB001B39FC0016A
:1009B000A39F700D811D1124911DB29F700D811D8B
:1009C0001124911D08950E94F7040C94A9050E941A
:1009D000A20558F00E949B0540F029F45F3F29F0E2
:1009E0000C94920551110C94DD050C9498050E940D
:1009F000BA0568F39923B1F3552391F3951B550B71
:100A0000BB27AA2762177307840738F09F5F5F4FE1
:100A1000220F331F441FAA1FA9F335D00E2E3AF020
:100A2000E0E832D091505040E695001CCAF72BD038
:100A3000FE2F29D0660F771F881FBB1F2617370789
:100A40004807AB07B0E809F0BB0B802DBF01FF27BB
:100A500093585F4F3AF09E3F510578F00C94920501
:100A60000C94DD055F3FE4F3983ED4F386957795CB
:100A70006795B795F7959F5FC9F7880F911D969574
:100A8000879597F90895E1E0660F771F881FBB1FD0
:100A9000621773078407BA0720F0621B730B840B7D
:100AA000BA0BEE1F88F7E0950895E89409C097FB0C
:100AB0003EF490958095709561957F4F8F4F9F4F35
:100AC0009923A9F0F92F96E9BB279395F695879579
:100AD00077956795B795F111F8CFFAF4BB0F11F43C
:100AE00060FF1BC06F5F7F4F8F4F9F4F16C08823E3
:100AF00011F096E911C0772321F09EE8872F762F19
:100B000005C0662371F096E8862F70E060E02AF059
:100B10009A95660F771F881FDAF7880F9695879545
:100B200097F9089597F99F6780E870E060E008956D
:100B30009FEF80EC089500240A94161617061806F5
:100B40000906089500240A941216130614060506D1
:100B50000895092E0394000C11F4882352F0BB0F62
:100B600040F4BF2B11F460FF04C06F5F7F4F8F4FC5
:100B70009F4F089557FD9058440F551F59F05F3F00
:100B800071F04795880F97FB991F61F09F3F79F0AF
:100B900087950895121613061406551FF2CF469531
:100BA000F1DF08C0161617061806991FF1CF8695B3
:100BB0007105610508940895E894BB276627772797
:100BC000CB0197F908950E94F6050C94A9050E949F
:100BD0009B0538F00E94A20520F0952311F00C949B
:100BE00092050C94980511240C94DD050E94BA0519
:100BF00070F3959FC1F3950F50E0551F629FF00170
:100C0000729FBB27F00DB11D639FAA27F00DB11D88
:100C1000AA1F649F6627B00DA11D661F829F222711
:100C2000B00DA11D621F739FB00DA11D621F839F98
:100C3000A00D611D221F749F3327A00D611D231F6E
:100C4000849F600D211D822F762F6A2F11249F57BC
:100C500050409AF0F1F088234AF0EE0FFF1FBB1FBF
:100C6000661F771F881F91505040A9F79E3F51057E
:100C700080F00C9492050C94DD055F3FE4F3983E00
:100C8000D4F3869577956795B795F795E7959F5F28
:100C9000C1F7FE2B880F911D9695879597F90895BA
:040CA000F894FFCFF6
:100CA400321F032D2D2D2053797374656D205265E9
:100CB400616479202D2D2D0D0A0050574D20536568
:100CC4007420746F3A2000250D0A00563A20002043
:0A0CD400207C202000493A20000097
:00000001FF
